:100000000C9434000C9451000C9451000C94510049
:100010000C9451000C9451000C9451000C9451001C
:100020000C9451000C9451000C9451000C9451000C
:100030000C9451000C9451000C9451000C945100FC
:100040000C9451000C9451000C9451000C945100EC
:100050000C9451000C9451000C9451000C945100DC
:100060000C9451000C94510011241FBECFEFD8E026
:10007000DEBFCDBF11E0A0E0B1E0E4EFF8E002C0E8
:1000800005900D92A631B107D9F711E0A6E1B1E0D4
:1000900001C01D92A736B107E1F70E9460010C94E0
:1000A00078040C940000282F392FD901862F972F20
:1000B000FC0180E090E03D912191321739F40196E6
:1000C00088309105C1F720E030E002C02FEF3FEF0C
:1000D000C9010895282F392FD901862F972FFC01A8
:1000E00080E090E02D912193019688309105D1F721
:1000F000089589B193B193708C7F892B0895EF9205
:10010000FF920F931F93CF93DF9307E511E0C0E0B9
:10011000D0E081E0E82EF12CC7010C2E02C0880F40
:10012000991F0A94E2F74AB1282F382F3C7F437079
:10013000342B3AB934B123703C7F232B24B92BB133
:100140008095982F9C7F2370922B9BB995B18370DB
:100150009C7F892B85B98FE99FE00197F1F700C05B
:1001600000000E947900F80181938F012196C83028
:10017000D10591F6DF91CF911F910F91FF90EF90F4
:1001800008959093C5008093C40086E08093C200D8
:1001900088E18093C10008958091C00087FFFCCF63
:1001A0008091C60008959091C00095FFFCCF809388
:1001B000C60008950F931F93CF93DF93082F192F35
:1001C000C0E0D0E0F80181918F01882331F00E94D6
:1001D000D3002196C034D105A9F7DF91CF911F91AB
:1001E0000F910895CF93DF93C7E1D1E000D000D005
:1001F00000D0EDB7FEB73196ADB7BEB71296DC931F
:10020000CE93119780E091E0938382838BE190E01D
:10021000958384830E9497018DB79EB706960FB68B
:10022000F8949EBF0FBE8DBFCE010E94DA00DF9111
:10023000CF910895FF920F931F93CF93DF930E9466
:10024000F200C0E0D0E090E3F92E01E31FE527C003
:10025000C817D90719F4DB011C930EC0DA012C91E1
:1002600030E0082E02C0359527950A94E2F720FF6A
:1002700002C0008301C0F08201963196883091055A
:1002800039F78FE191E067E071E00E94900187E12A
:1002900091E00E94DA002196C830D10559F0E7E1DB
:1002A000F1E080E090E0AE01415A5E4FBE016E0F7A
:1002B0007F1FCECFDF91CF911F910F91FF900895B7
:1002C00080E090E00E94C1000E94CC0087E191E0B4
:1002D0006AE071E00E94900187E191E00E94DA00FB
:1002E0008FEF93EDA0E381509040A040E1F700C074
:1002F00000000E947F008FE591E067E571E00E94B9
:1003000053000097B1F387E591E06FE571E00E943B
:100310006A000E941A01AFE3BCE91197F1F7E7CF39
:10032000FB01DC0101900D920020E1F70895AEE0A1
:10033000B0E0EDE9F1E00C944F040D891E8986E0F0
:100340008C831A8309838FEF9FE79E838D839E01A1
:10035000275E3F4FCE0101966F89788DA9010E94DB
:10036000BA01EF81F885E00FF11F10822E96E4E0CC
:100370000C946B04ACE0B0E0E0ECF1E00C944104D0
:100380006C011B018A01FC0117821682838181FFA7
:10039000D1C12E010894411C511CF6019381F10139
:1003A00093FD859193FF81911F01882309F4BEC1BC
:1003B000853239F493FD859193FF81911F01853238
:1003C00029F490E0B6010E94B703E7CFEE24FF24A2
:1003D00020E02032B0F48B3269F08C3228F4803285
:1003E00051F0833271F40BC08D3239F0803349F40F
:1003F00021602CC02260246029C0286027C02061B1
:1004000025C027FD2CC0382F30533A3098F426FFF2
:1004100008C08E2D880FE82EEE0CEE0CE80EE30ED1
:1004200015C08F2D880FF82EFF0CFF0CF80EF30E61
:1004300020620CC08E3221F426FD78C1206406C0F3
:100440008C3611F4206802C0883649F4F10193FD1E
:10045000859193FF81911F01882309F0BACF982FCE
:100460009554933018F09052933028F40C5F1F4F3E
:10047000FFE3F9830DC0833631F0833771F08335A4
:1004800009F060C022C0F801808189830E5F1F4F90
:10049000420171E0A72EB12C16C062E0662E712CCD
:1004A000600E711EF8018080918026FF03C06E2DC2
:1004B00070E002C06FEF7FEFC4012C870E94AC0395
:1004C0005C0183012C852F7717C052E0652E712CBB
:1004D000600E711EF8018080918026FF03C06E2D92
:1004E00070E002C06FEF7FEFC4012C870E94A10370
:1004F0005C012C852068830123FD20C008C080E2B8
:1005000090E0B6012C870E94B703FA942C858F2DBA
:1005100090E0A816B90698F311C0F40127FD859163
:1005200027FF81914F0190E0B6012C870E94B7030D
:100530002C85F110FA940894A108B108A114B10413
:1005400061F7F1C0843611F0893649F527FF08C0FC
:10055000F80160817181828193810C5F1F4F09C016
:10056000F80160817181882777FD8095982F0E5F53
:100570001F4F4FE6B42EB22297FF09C09095809589
:10058000709561957F4F8F4F9F4FF0E8BF2AA20172
:100590002AE030E00E94E303782E741845C08537C6
:1005A00031F43FEEB32EB2222AE030E025C099EFBD
:1005B000B92EB2228F36C1F0803720F4883509F089
:1005C000B5C00DC0803721F0883709F0AFC002C038
:1005D00020E1B22AB4FE0BC084E0B82A08C0B4FE01
:1005E00009C0E6E0BE2A06C028E030E005C020E1F0
:1005F00030E002C020E132E0B7FE08C0F8016081BF
:100600007181828193810C5F1F4F07C0F801608167
:10061000718180E090E00E5F1F4FA2010E94E30312
:10062000782E7418FFE7BF22B6FE0BC02EEFB22261
:100630007E1438F4B4FE07C0B2FC05C08FEEB822B9
:1006400002C0A72C01C0AE2C8B2D90E0B4FE0DC0D3
:10065000FE01E70DF11D2081203319F4E9EEBE22E1
:1006600009C0A394B2FE06C004C0867890700097BB
:1006700009F0A3948B2C9924B3FC14C0B0FE0FC0D6
:10068000AF1428F4E72CEF0CEA18AF2C08C0E72CC5
:1006900006C080E290E0B6010E94B703A394AF14B5
:1006A000C0F304C0AF1410F4FA1801C0FF2484FE94
:1006B0000FC080E390E0B6010E94B70382FE1FC026
:1006C00081FE03C088E590E010C088E790E00DC08F
:1006D000C40186789070009791F081FC02C080E29E
:1006E00001C08BE2B7FC8DE290E0B6010E94B70337
:1006F00006C080E390E0B6010E94B703EA947E143E
:10070000C0F37A94F201E70DF11D808190E0B6010B
:100710000E94B7037720A9F706C080E290E0B601F7
:100720000E94B703FA94FF20C1F737CEF601268165
:10073000378102C02FEF3FEFC9012C96E2E10C9404
:100740005D04FC010590615070400110D8F7809560
:1007500090958E0F9F1F0895FC016150704001908D
:100760000110D8F7809590958E0F9F1F08950F93D5
:100770001F93CF93DF938C01EB018B8181FF1BC013
:1007800082FF0DC02E813F818C819D812817390702
:1007900064F4E881F9810193F983E88306C0E88570
:1007A000F985802F0995009731F48E819F810196FC
:1007B0009F838E8302C00FEF1FEFC801DF91CF919F
:1007C0001F910F910895FA01AA27283051F1203185
:1007D00081F1E8946F936E7F6E5F7F4F8F4F9F4FD5
:1007E000AF4FB1E03ED0B4E03CD0670F781F891F17
:1007F0009A1FA11D680F791F8A1F911DA11D6A0FE5
:10080000711D811D911DA11D20D009F468943F9197
:100810002AE0269F11243019305D3193DEF6CF0196
:100820000895462F4770405D4193B3E00FD0C9F75C
:10083000F6CF462F4F70405D4A3318F0495D31FDC9
:100840004052419302D0A9F7EACFB4E0A69597951C
:10085000879577956795BA95C9F7009761057105F2
:1008600008959B01AC010A2E06945795479537953C
:100870002795BA95C9F7620F731F841F951FA01D96
:1008800008952F923F924F925F926F927F928F9234
:100890009F92AF92BF92CF92DF92EF92FF920F930F
:1008A0001F93CF93DF93CDB7DEB7CA1BDB0B0FB619
:1008B000F894DEBF0FBECDBF09942A8839884888D6
:1008C0005F846E847D848C849B84AA84B984C8846C
:1008D000DF80EE80FD800C811B81AA81B981CE0F63
:1008E000D11D0FB6F894DEBF0FBECDBFED01089548
:0408F000F894FFCFAA
:1008F40025635B324A0D000D0A00537461727469FA
:060904006E672E2E2E008E
:00000001FF
