:100000000C9434000C9449000C9449000C94490061
:100010000C9449000C9449000C9449000C9449003C
:100020000C9449000C9449000C9449000C9449002C
:100030000C9449000C9449000C9449000C9449001C
:100040000C9449000C9449000C9449000C9449000C
:100050000C9449000C9449000C9449000C944900FC
:100060000C9449000C94490011241FBECFEFD8E036
:10007000DEBFCDBF11E0A0E0B1E0E6E9F1E002C0F3
:1000800005900D92A032B107D9F70E94AD000C94F3
:10009000C9000C94000090917C00982B90937C00F8
:1000A00080917A00806480937A0080917A0084FF46
:1000B000FCCF80917A00806180937A002091780053
:1000C00030917900C901089587E880937A000895F6
:1000D0009093C5008093C40086E08093C20088E1BD
:1000E0008093C10008958091C00087FFFCCF80916C
:1000F000C60008959091C00095FFFCCF8093C60084
:1001000008956115710559F08031910558F4FC018D
:10011000EE0FFF1FE050FF4F2081318105C020E02E
:1001200030E002C026E230E08FEF90E08227932794
:100130004BB19C01220F331F220F331F4370422B00
:100140004BB925B18074907036E0959587953A95B6
:10015000E1F72E7F282B25B90895CF9387E8809368
:100160007A008AB18C6F8AB9209A80E090E00E9470
:10017000680080E190E061E070E00E9481000E94F0
:100180007300C82F0E947A008C2F90E08F709070BF
:06019000F2CFF894FFCF4E
:100196007D0011003E003700530067006F003100FC
:1001A6007F0077007B004F006C001F006E006A0026
:00000001FF
