:10000000B2C00000CBC00000C9C00000C7C00000E3
:10001000C5C00000C3C00000C1C00000BFC00000D8
:10002000BDC00000BBC00000B9C00000B6C40000E5
:10003000B5C00000B3C00000B1C00000AFC00000F8
:10004000ADC00000ABC00000A9C00000A7C0000008
:10005000A5C00000A3C00000A1C0000019C200009C
:100060009DC000009BC0000099C0000097C0000028
:1000700095C0000093C0000091C000008FC0000038
:100080008DC000008BC0000089C0000087C0000048
:1000900085C0000083C0000005010906A1017501AB
:1000A0009508050719E029E715002501810295014A
:1000B0007508810395057501050819012905910247
:1000C00095017503910395067508150026E700054F
:1000D00007190029E78100C0050C0901A1011900D9
:1000E0002A5F021500265F02950175108100C0127B
:1000F00001100100000008EB034220000001020093
:100100000109023B00020100C032090400000103A2
:1001100001010009211101000122400007058103AE
:1001200008000A090401000103010000092111016E
:1001300000012217000705820302000A04030904D4
:100140001003410072006400750069006E006F00CA
:10015000000012034B006500790062006F0061002F
:1001600072006400000011241FBECFEFD2E0DEBF9A
:10017000CDBF11E0A0E0B1E0EEE2F1E102C00590F8
:100180000D92AC31B107D9F711E0ACE1B1E001C09B
:100190001D92AC3DB107E1F768D0C7C731CFDF9200
:1001A000EF92FF920F931F93CF93DF937C018B010C
:1001B0006FEF70E08FEF90E01FC0F901263131053D
:1001C00010F0E5E1F0E02E1B3F0BDF01EA01D990D2
:1001D0008D0D911D680F791F1197C9F74E0F5F1F85
:1001E000E92FFF27DF01A80FB11DCD01E72FFF2762
:1001F000DF01A60FB11DBD0121153105F1F6492F13
:100200005527272F3327480F511DF7014083260F0D
:10021000311DD8012C93DF91CF911F910F91FF9049
:10022000EF90DF90089584B7877F84BF88E10FB691
:10023000F89480936000109260000FBE1092CD0081
:100240001092CC0096E09093CA001092C800E9EC9E
:10025000F0E08083539A5A9A80818068808392D399
:1002600084E085BD5F9A579A0895DDDF2FB7F89433
:100270008DE491E09093CE018093CD019093D001D5
:100280008093CF012FBF789482E091E07ED68FE0FB
:1002900091E07BD622D5F8CF0895089582E091E0D1
:1002A00050D68FE091E04DD6E2EEF0E080818460A0
:1002B0008083089582E091E022D58FE091E01FC510
:1002C00080910D0190910E01009729F00197909374
:1002D0000E0180930D0180911A0190911B010097EE
:1002E00029F0019790931B0180931A010895AF9212
:1002F000BF92CF92DF92EF92FF920F931F93DF9303
:10030000CF9300D0CDB7DEB75C01F22EE32EC22E24
:10031000D32E9FB7F8948091D1019FBF8E3008F4FF
:100320007FC080E090E02DE431E01EC0480F591FEF
:10033000E091CF01F091D0017191F093D001E09361
:10034000CF0161E0ED3CF60721F43093D00120931A
:10035000CF01EFB7F8946091D10161506093D10162
:10036000EFBFDA017C9301964091000150910101A9
:100370008E309105D9F6CE010196BE016E5F7F4F9A
:100380002CE030E00CDF998180914B01981709F047
:100390003EC09A8180914C019817C9F5809149011E
:1003A0009091C80095FFFCCF8093CE004091000152
:1003B00050910101CA01ECE1F1E0DC012D91CD0188
:1003C0002193B1E0E432FB07C1F7FA018085918502
:1003D000909325018093240123C08091CF019091B7
:1003E000D00101969093D0018093CF01F1E08D3C34
:1003F0009F0721F43093D0012093CF019FB7F89449
:100400008091D10181508093D1019FBF02C02DE422
:1004100031E09FB7F8948091D1019FBF8823E9F61E
:1004200022E0A21621E0B20679F4ECE1F1E09701B6
:10043000832F9E2DDC0181918D9341E0E432F407FE
:10044000D1F788E090E009C08091240190912501C6
:10045000F6019183808382E090E0D80111969C930D
:100460008E9380E00F900F90CF91DF911F910F91AD
:10047000FF90EF90DF90CF90BF90AF90089541E054
:100480008230940721F4F901808180932601089538
:100490001F920F920FB60F9211242F938F939F9359
:1004A000EF93FF938091CE009EB39430F9F4E091E6
:1004B000CD01F091CE018083E091CD01F091CE018C
:1004C000CF0101969093CE018093CD0121E08D3C28
:1004D000920721F48DE491E0928381839FB7F89491
:1004E0008091D1018F5F8093D1019FBFFF91EF91E8
:1004F0009F918F912F910F900FBE0F901F90189585
:10050000933089F0943028F4913069F1923081F57C
:1005100005C09132D1F0923259F51EC02BE330E084
:10052000E1E0F1E033C0813041F0813018F08230F9
:10053000F9F406C0ECE3F1E005C0E0E4F1E002C04C
:10054000E2E5F1E0249130E021C06623B1F429E036
:1005500030E0E3E1F1E01AC06623A1F420E430E0EA
:10056000E8E9F0E013C022E130E0EFEEF0E00EC089
:1005700020E030E0E0E0F0E009C029E030E0ECE22B
:10058000F1E004C027E130E0E8EDF0E0DA01119697
:10059000FC93EE93C901089528E030E040E003C0E9
:1005A0004F5F220F331F28173907D0F3842F82950E
:1005B000807F08958093E900EBEEF0E08081816018
:1005C0008083EDEEF0E010826093EC004083809138
:1005D000EE00881F8827881F08951092F40080E09D
:1005E0008093E9001092F0001092E8001092ED0064
:1005F0009091EB009E7F9093EB008F5F853081F7A9
:1006000008958091D40187FF11C003C08EB3882361
:10061000B1F08091E80082FFF9CF8091E8008B77FC
:100620008093E80008958EB3882349F08091E80014
:1006300080FFF9CF8091E8008E778093E8000895DD
:1006400084E69091EC0090FF05C09091E80090FF47
:1006500005C01BC09091E80092FD17C09EB399237E
:10066000B1F09EB39530A9F09091EB0095FD13C0C9
:100670009091E10092FFE5CF9091E1009B7F9093F4
:10068000E100882351F08150DCCF80E0089582E0C2
:10069000089583E0089581E0089584E00895AF927D
:1006A000BF92DF92EF92FF920F931F93DF93CF934E
:1006B0000F92CDB7DEB7082F5B017A019983C0DFB7
:1006C000D82E9981882331F5192F1CC08091E8001C
:1006D00085FD10C08091E8008E778093E800E114DA
:1006E000F10421F0F7010995813081F0A9DF882319
:1006F00049F00FC0F80181918F018093F1000894B7
:10070000A108B108A114B10409F704C075E0D72EFF
:1007100001C0D82E8D2D0F90CF91DF911F910F9199
:10072000FF90EF90DF90BF90AF900895282F392F62
:10073000F9018091DA019091DB018617970718F48F
:10074000BC0190E032C061157105D9F78091E800D5
:100750008E778093E800F5CF8091E80083FD37C065
:100760008091E80082FD2DC08EB38823A1F18EB365
:10077000853079F18091E80080FF17C08091F20008
:1007800006C091919093F100615070408F5F6115A8
:10079000710511F08830A8F391E0883009F090E0FD
:1007A0008091E8008E778093E80061157105A1F6CD
:1007B000992391F606C08EB3882369F08EB38530F5
:1007C00061F08091E80082FFF6CF80E0089581E03B
:1007D000089583E0089582E0089583E00895282F26
:1007E000392FC9012091DA013091DB012617370733
:1007F00018F4B90130E034C061157105D9F72091C2
:10080000E8002E772093E800F5CF2091E80023FD43
:1008100039C02091E80022FD2FC02EB32223B1F170
:100820002EB3253089F12091E80020FF19C02091D6
:10083000F20008C0FC010196E491E093F1006150E0
:1008400070402F5F6115710511F0283098F331E089
:10085000283009F030E02091E8002E772093E8005E
:100860006115710591F6332381F606C08EB3882396
:1008700069F08EB3853061F08091E80082FFF6CF99
:1008800080E0089581E0089583E0089582E008956E
:1008900083E008956115710519F51DC02091E800E8
:1008A00023FD2EC02EB3222379F12EB3253051F132
:1008B0002091E80022FFF2CFE82FF92F07C08091A6
:1008C000F1008193CF016150704029F0CF01209158
:1008D000F2002223A1F72091E8002B772093E80073
:1008E00061157105D9F606C08EB3882369F08EB301
:1008F000853061F08091E80080FFF6CF80E00895B8
:1009000081E0089583E0089582E0089583E00895EA
:100910003ED040D01EBA1092D20184E089BD89B584
:10092000826089BD09B400FEFDCF8091D800982F68
:100930009F779093D80080688093D800809163005F
:100940008E7F809363008091D8008F7D8093D80044
:100950008091E0008E7F8093E0008091E1008E7FA7
:100960008093E1008091E20081608093E2008091B9
:10097000E100877F8093E1008091E20088608093AE
:10098000E2000895C5DF81E08093D30108951092BD
:10099000E20008951092E10008951F920F920FB6A1
:1009A0000F9211242F933F934F935F936F937F93F5
:1009B0008F939F93AF93BF93EF93FF938091E10049
:1009C00080FF1BC08091E20080FF17C08091E10092
:1009D0008E7F8093E1008091E2008E7F8093E20021
:1009E0008091E20080618093E2008091D800806273
:1009F0008093D80019BC1EBA50DC8091E10084FFBE
:100A000029C08091E20084FF25C084E089BD89B5BA
:100A1000826089BD09B400FEFDCF8091D8008F7D32
:100A20008093D8008091E1008F7E8093E1008091D7
:100A3000E2008F7E8093E2008091E20081608093EB
:100A4000E2008091D201882311F084E001C081E0AE
:100A50008EBB22DC8091E10083FF22C08091E20006
:100A600083FF1EC08091E100877F8093E10082E0D8
:100A70008EBB1092D2018091E1008E7F8093E100C5
:100A80008091E2008E7F8093E2008091E20080619D
:100A90008093E200A2DD80E060E042E08BDD1CD1CB
:100AA0008091E10082FF0AC08091E20082FF06C0CF
:100AB0008091E1008B7F8093E10002DCFF91EF9158
:100AC000BF91AF919F918F917F916F915F914F9166
:100AD0003F912F910F900FBE0F901F9018951F936D
:100AE000DF93CF9300D0CDB7DEB7E4EDF1E0809196
:100AF000F100819381E0EC3DF807C9F78091D401C2
:100B00009091D501953009F46BC0963040F4913046
:100B100061F1913070F0933009F0C9C026C098306F
:100B200009F49BC0993009F4AAC0963009F0BFC0FF
:100B300075C0803809F4BCC0823809F0B8C0809113
:100B4000D80187708093E9009091EB001092E90042
:100B50008091E800877F8093E80081E095FF80E046
:100B60008093F1001092F10083C0882319F0823045
:100B700009F09DC08F71823009F09AC08091D60132
:100B8000882341F52091D801277009F491C0209362
:100B9000E9008091EB0080FF8BC08091D50183300C
:100BA00021F48091EB00806213C08091EB008061A2
:100BB0008093EB0081E090E002C0880F991F2A9596
:100BC000E2F78093EA001092EA008091EB008860DF
:100BD0008093EB001092E9008091E800877F4BC082
:100BE000882309F064C01091D6018091E800877FC6
:100BF0008093E80006DD04C08EB3882309F458C052
:100C00008091E80080FFF8CF1F7711F083E001C0EA
:100C100082E08EBB10681093E3004AC08058823097
:100C200008F045C08091D6019091D7016091D8011C
:100C3000AE014F5F5F4F64DCBC010097C9F180914A
:100C4000E800877F8093E80089819A81C8DD8091E0
:100C5000E8008B778093E8002BC0803841F58091C5
:100C6000E800877F8093E8008091D2018093F100B3
:100C70008091E8008E778093E800C3DC19C0882358
:100C8000B1F49091D601923098F48091E800877F7A
:100C90008093E8009093D201B4DC8091D201882344
:100CA00011F084E001C083E08EBBF8DA01C002DB02
:100CB0008091E80083FF0AC08091EB0080628093FE
:100CC000EB008091E800877F8093E8000F900F9001
:100CD000CF91DF911F9108950895CF938EB388230C
:100CE00061F0C091E900C7701092E9008091E800BE
:100CF00083FF01C0F4DEC093E900CF9108956F92A5
:100D00007F928F929F92AF92BF92CF92DF92EF929B
:100D1000FF920F931F93DF93CF9300D00F92CDB725
:100D2000DEB77C016DB67EB68091E80083FFF2C02D
:100D3000F701808190E02091D8013091D9012817E6
:100D4000390709F0E7C08091D501833009F493C0D9
:100D5000843030F4813071F0823009F0DBC0C2C0E1
:100D60008A3009F4A8C08B3009F492C0893009F0A8
:100D7000D1C04FC08091D401813A09F0CBC09DB65B
:100D80008EB68091E800877F8093E8001B821A82EC
:100D90008091D6010091D7018983F70147818DB7F2
:100DA0009EB7841B91090FB6F8949EBF0FBE8DBFEE
:100DB000CDB6DEB60894C11CD11CBC2CAD2CC6012E
:100DC00060E070E050E0AAD1402F4150C701BE0161
:100DD0006F5F7F4F96018E010E5F1F4F88DAF7011C
:100DE000258136812115310529F04781C901B601D8
:100DF00050E08BD11092E9006A817B818B2D9A2D76
:100E000095DC8091E8008B778093E8009DBE8EBED4
:100E100081C08091D401813209F07CC0AEB680914E
:100E2000E800877F8093E8000091DA011091DB01F0
:100E30009090D6018090D7018DB79EB7801B910B03
:100E40000FB6F8949EBF0FBE8DBFCDB6DEB6089428
:100E5000C11CD11CC601B8011DDD482D4150C70180
:100E6000692D96010CDB8091E8008E778093E80075
:100E70006DBEAEBE4FC08091D401813A09F04AC028
:100E80008091E800877F8093E800F70180853AC071
:100E90008091D401813209F03DC08091E800877FC4
:100EA0008093E8009091D60181E0992309F480E0D5
:100EB000F70180872EC08091D401813259F580914D
:100EC000E800877F8093E8008091D6019091D70158
:100ED000807036E0969587953A95E1F7F70192870D
:100EE000818717C08091D401813AA1F48091E800F4
:100EF000877F8093E800F701818592859695879595
:100F0000969587958093F1008091E8008E77809385
:100F1000E80077DB0FB6F8947EBE0FBE6DBE0F9073
:100F20000F900F90CF91DF911F910F91FF90EF9055
:100F3000DF90CF90BF90AF909F908F907F906F90F9
:100F40000895CF93DF93FC010896DC0185E0ED0165
:100F500019928A95E9F781E0808784EF91E0928782
:100F6000818722813381D1818481882311F0C4E07B
:100F700001C0C0E0C90110DB4C2F482B42608D2F0F
:100F800061EC18DBDF91CF9108955F926F927F92B1
:100F90008F929F92AF92BF92CF92DF92EF92FF9289
:100FA0000F931F93DF93CF9300D000D0CDB7DEB760
:100FB0007C016DB67EB68EB3843009F080C0F70137
:100FC00081818093E9008091E80085FF78C08DB62B
:100FD0005EB647818DB79EB7841B91090FB6F89412
:100FE0009EBF0FBE8DBF0DB71EB70F5F1F4FB02E38
:100FF000A12E19821B821A82C80160E070E050E0C5
:101000008DD0C701BE016F5F7F4F40E098018E0118
:101010000E5F1F4F6CD9982EF7018185928500973E
:1010200059F081E090E0238534852115310511F0D8
:1010300080E090E06C0102C0CC24DD24F701058142
:10104000168101151105A1F04A815B818B2D9A2D26
:10105000B8014ED021E0009709F420E0F701478164
:10106000C8016B2D7A2D50E02C834FD02C8101C00C
:1010700020E08A819B81009701F1992029F42223A5
:1010800019F4C114D104C9F0F701818592859487C0
:10109000838781818093E9008981882311F080937F
:1010A000F1006A817B818B2D9A2D40E050E0F7DAC8
:1010B0008091E8008E778093E8008DBE5EBE0FB60B
:1010C000F8947EBE0FBE6DBE0F900F900F900F90E4
:1010D000CF91DF911F910F91FF90EF90DF90CF9014
:1010E000BF90AF909F908F907F906F905F9008958A
:1010F000FB01DC0104C08D910190801921F4415065
:101100005040C8F7881B990B0895FB01DC0102C011
:1011100001900D9241505040D8F70895DC0101C074
:0E1120006D9341505040E0F70895F894FFCFD2
:10112E003F01000108000027010800000000000137
:0C113E00020200002F0110000000000061
:00000001FF
